{
  "_format": "hh3-artifact-1",
  "contractName": "FuelUseVerifier",
  "sourceName": "contracts/FuelUseVerifier.sol",
  "abi": [
    {
      "inputs": [
        {
          "internalType": "uint256[2]",
          "name": "_pA",
          "type": "uint256[2]"
        },
        {
          "internalType": "uint256[2][2]",
          "name": "_pB",
          "type": "uint256[2][2]"
        },
        {
          "internalType": "uint256[2]",
          "name": "_pC",
          "type": "uint256[2]"
        },
        {
          "internalType": "uint256[2]",
          "name": "_pubSignals",
          "type": "uint256[2]"
        }
      ],
      "name": "verifyProof",
      "outputs": [
        {
          "internalType": "bool",
          "name": "",
          "type": "bool"
        }
      ],
      "stateMutability": "view",
      "type": "function"
    }
  ],
  "bytecode": "0x608060405234801561000f575f80fd5b5061059d8061001d5f395ff3fe608060405234801561000f575f80fd5b5060043610610029575f3560e01c8063f5c9d69e1461002d575b5f80fd5b61004061003b36600461050b565b610054565b604051901515815260200160405180910390f35b5f6104ba565b7f30644e72e131a029b85045b68181585d2833e84879b9709143e1f593f00000018110610089575f805260205ff35b50565b5f60405183815284602082015285604082015260408160608360076107d05a03fa9150816100bc575f805260205ff35b825160408201526020830151606082015260408360808360066107d05a03fa915050806100eb575f805260205ff35b5050505050565b7f27728e414d599f7ec87b9eb7ef4f4aa1e4cc1166bfe8c851181ccc988946ccbb85527f2b4d3716b90210eaa16b79eec5dbaaa4f94b43d044d91296e6baeeb4bc35e33c60208601525f608086018661018e87357f172d324f9c7b31d4acd2e63d1d71d8301c181a2d99d4b386cae443f45a921f907f2431ff33b5e8948887993663e003dbfe5a023650ee8bfa31363620fefebd782e8461008c565b6101de60208801357f1558dc591e63817f89d8e5e2b9377da43f675868e0b14596c2cec86eb0589d1f7f1a245fcbb82119a262fdd5b0853d24ea78cebf53b0629185072889bc51bee83f8461008c565b50823581527f30644e72e131a029b85045b68181585d97816a916871ca8d3c208c16d87cfd4760208401357f30644e72e131a029b85045b68181585d97816a916871ca8d3c208c16d87cfd4703066020820152833560408201526020840135606082015260408401356080820152606084013560a08201527f2d4d9aa7e302d9df41749d5507949d05dbea33fbb16c643b22f599a2be6df2e260c08201527f14bedd503c37ceb061d8ec60209fe345ce89830a19230301f076caff004d192660e08201527f0967032fcbf776d1afc985f88877f182d38480a653f2decaa9794cbc3bf3060c6101008201527f0e187847ad4c798374d0d6732bf501847dd68bc0e071241e0213bc7fc13db7ab6101208201527f304cfbd1e08a704a99f5e847d93f8c3caafddec46b7a0d379da69a4d112346a76101408201527f1739c1b1a457a8c7313123d24d2f9192f896b7c63eea05a9d57f06547ad0cec86101608201525f87015161018082015260205f018701516101a08201527f198e9393920d483a7260bfb731fb5d25f1aa493335a9e71297e485b7aef312c26101c08201527f1800deef121f1e76426a00665e5c4479674322d4f75edadd46debd5cd992f6ed6101e08201527f090689d0585ff075ec9e99ad690c3395bc4b313370b38ef355acdadcd122975b6102008201527f12c85ea5db8c6deb4aab71808dcb408fe3d1e7690c43d37b4ce6cc0166fa7daa610220820152843561024082015260208501356102608201527e698327f54e5aadbcca2c34bbe147b1c190a217b28c4308083540e935f219826102808201527f0c0189a20324aab47ab401a6aa5c47045579bf9c4135ea17696af30a868f29fd6102a08201527e65e11dc8b9ec151b61bbe2376b5139269404a317bcb231283bb1cdea81f0216102c08201527f26be1d1c9b0dbdfb38c29ce074e45a2e317a599678fc05a9a39ee92e71bb55896102e08201526020816103008360086107d05a03fa9051169695505050505050565b60405161038081016040526104d15f84013561005a565b6104de602084013561005a565b6104eb818486888a6100f2565b9050805f5260205ff35b8060408101831015610505575f80fd5b92915050565b5f805f80610140858703121561051f575f80fd5b61052986866104f5565b935060c085018681111561053b575f80fd5b60408601935061054b87826104f5565b92505061055c8661010087016104f5565b90509295919450925056fea264697066735822122098c87a57f17b3b94a3362b851661820a0806df50aee4f919958be9fe1b8390fc64736f6c63430008140033",
  "linkReferences": {},
  "deployedLinkReferences": {},
  "immutableReferences": {},
  "inputSourceName": "project/contracts/FuelUseVerifier.sol",
  "buildInfoId": "solc-0_8_20-fc0a90fb98bd4d883f038853c3b495133b978e0f"
}