{
  "_format": "hh3-artifact-1",
  "contractName": "Coordinator",
  "sourceName": "contracts/Coordinator.sol",
  "abi": [
    {
      "inputs": [
        {
          "internalType": "address",
          "name": "_proofManager",
          "type": "address"
        }
      ],
      "stateMutability": "nonpayable",
      "type": "constructor"
    },
    {
      "anonymous": false,
      "inputs": [
        {
          "indexed": true,
          "internalType": "uint256",
          "name": "requestId",
          "type": "uint256"
        },
        {
          "indexed": false,
          "internalType": "bytes32",
          "name": "proofHash",
          "type": "bytes32"
        }
      ],
      "name": "ProofFound",
      "type": "event"
    },
    {
      "anonymous": false,
      "inputs": [
        {
          "indexed": true,
          "internalType": "uint256",
          "name": "requestId",
          "type": "uint256"
        },
        {
          "indexed": false,
          "internalType": "string",
          "name": "reason",
          "type": "string"
        }
      ],
      "name": "VerificationError",
      "type": "event"
    },
    {
      "anonymous": false,
      "inputs": [
        {
          "indexed": true,
          "internalType": "uint256",
          "name": "requestId",
          "type": "uint256"
        },
        {
          "indexed": true,
          "internalType": "address",
          "name": "requester",
          "type": "address"
        },
        {
          "indexed": false,
          "internalType": "bytes32",
          "name": "infoHash",
          "type": "bytes32"
        }
      ],
      "name": "VerificationRequested",
      "type": "event"
    },
    {
      "inputs": [
        {
          "internalType": "uint256",
          "name": "requestId",
          "type": "uint256"
        }
      ],
      "name": "getRequest",
      "outputs": [
        {
          "internalType": "address",
          "name": "requester",
          "type": "address"
        },
        {
          "internalType": "bytes32",
          "name": "infoHash",
          "type": "bytes32"
        },
        {
          "internalType": "enum Coordinator.Status",
          "name": "status",
          "type": "uint8"
        },
        {
          "internalType": "bytes32",
          "name": "proofHash",
          "type": "bytes32"
        },
        {
          "internalType": "string",
          "name": "error",
          "type": "string"
        }
      ],
      "stateMutability": "view",
      "type": "function"
    },
    {
      "inputs": [],
      "name": "nextRequestId",
      "outputs": [
        {
          "internalType": "uint256",
          "name": "",
          "type": "uint256"
        }
      ],
      "stateMutability": "view",
      "type": "function"
    },
    {
      "inputs": [
        {
          "internalType": "uint256",
          "name": "requestId",
          "type": "uint256"
        },
        {
          "internalType": "string",
          "name": "reason",
          "type": "string"
        }
      ],
      "name": "notifyError",
      "outputs": [],
      "stateMutability": "nonpayable",
      "type": "function"
    },
    {
      "inputs": [
        {
          "internalType": "uint256",
          "name": "requestId",
          "type": "uint256"
        },
        {
          "internalType": "bytes32",
          "name": "proofHash",
          "type": "bytes32"
        }
      ],
      "name": "notifyProof",
      "outputs": [],
      "stateMutability": "nonpayable",
      "type": "function"
    },
    {
      "inputs": [],
      "name": "proofManager",
      "outputs": [
        {
          "internalType": "address",
          "name": "",
          "type": "address"
        }
      ],
      "stateMutability": "view",
      "type": "function"
    },
    {
      "inputs": [
        {
          "internalType": "bytes32",
          "name": "infoHash",
          "type": "bytes32"
        }
      ],
      "name": "requestVerification",
      "outputs": [
        {
          "internalType": "uint256",
          "name": "requestId",
          "type": "uint256"
        }
      ],
      "stateMutability": "nonpayable",
      "type": "function"
    },
    {
      "inputs": [
        {
          "internalType": "uint256",
          "name": "",
          "type": "uint256"
        }
      ],
      "name": "requests",
      "outputs": [
        {
          "internalType": "address",
          "name": "requester",
          "type": "address"
        },
        {
          "internalType": "bytes32",
          "name": "infoHash",
          "type": "bytes32"
        },
        {
          "internalType": "enum Coordinator.Status",
          "name": "status",
          "type": "uint8"
        },
        {
          "internalType": "bytes32",
          "name": "proofHash",
          "type": "bytes32"
        },
        {
          "internalType": "string",
          "name": "error",
          "type": "string"
        }
      ],
      "stateMutability": "view",
      "type": "function"
    }
  ],
  "bytecode": "0x608060405234801561000f575f80fd5b50604051610aba380380610aba83398101604081905261002e916100ac565b6001600160a01b0381166100885760405162461bcd60e51b815260206004820152601960248201527f436f6f7264696e61746f723a207a65726f206164647265737300000000000000604482015260640160405180910390fd5b5f80546001600160a01b0319166001600160a01b03929092169190911790556100d9565b5f602082840312156100bc575f80fd5b81516001600160a01b03811681146100d2575f80fd5b9392505050565b6109d4806100e65f395ff3fe608060405234801561000f575f80fd5b506004361061007a575f3560e01c80639ae3695a116100585780639ae3695a146100d1578063c58343ef146100e6578063e68ccb33146100f9578063ff18421214610123575f80fd5b80636a84a9851461007e57806381d12c581461009a5780639a53e829146100be575b5f80fd5b61008760015481565b6040519081526020015b60405180910390f35b6100ad6100a8366004610677565b610136565b6040516100919594939291906106a2565b6100876100cc366004610677565b6101fc565b6100e46100df366004610731565b61034d565b005b6100ad6100f4366004610677565b61046c565b5f5461010b906001600160a01b031681565b6040516001600160a01b039091168152602001610091565b6100e4610131366004610751565b61054f565b600260208190525f9182526040909120805460018201549282015460038301546004840180546001600160a01b03909416959460ff9093169391929161017b906107c6565b80601f01602080910402602001604051908101604052809291908181526020018280546101a7906107c6565b80156101f25780601f106101c9576101008083540402835291602001916101f2565b820191905f5260205f20905b8154815290600101906020018083116101d557829003601f168201915b5050505050905085565b600180545f918261020c836107fe565b909155505f81815260026020819052604090912080546001600160a01b0319163317815560018082018690559181018054939450909260ff191682800217905550604051838152339083907f6986bc1336ab80917c92922f9dadaeb0fe10ad1e922d0d93c4c71915e1600a3c9060200160405180910390a35f80546040516353aa2c0360e01b81526004810186905282916001600160a01b0316906353aa2c03906024016040805180830381865afa1580156102ca573d5f803e3d5ffd5b505050506040513d601f19601f820116820180604052508101906102ee9190610822565b915091508115610345576002838101805460ff191690911790556003830181905560405181815284907f5978411bb2dcd3ca180031e9dfd772a5dba842d8647f3ddcbfa0a6cefeed57cb9060200160405180910390a25b505050919050565b5f546001600160a01b031633146103ab5760405162461bcd60e51b815260206004820152601d60248201527f436f6f7264696e61746f723a206e6f742050726f6f664d616e6167657200000060448201526064015b60405180910390fd5b5f8281526002602052604090206001600282015460ff1660038111156103d3576103d361068e565b1461041b5760405162461bcd60e51b8152602060048201526018602482015277436f6f7264696e61746f723a206e6f742070656e64696e6760401b60448201526064016103a2565b6002818101805460ff191690911790556003810182905560405182815283907f5978411bb2dcd3ca180031e9dfd772a5dba842d8647f3ddcbfa0a6cefeed57cb9060200160405180910390a2505050565b5f81815260026020819052604082208054600182015492820154600383015460048401805487968796879660609691956001600160a01b0390911694929360ff90921692909181906104bd906107c6565b80601f01602080910402602001604051908101604052809291908181526020018280546104e9906107c6565b80156105345780601f1061050b57610100808354040283529160200191610534565b820191905f5260205f20905b81548152906001019060200180831161051757829003601f168201915b50505050509050955095509550955095505091939590929450565b5f546001600160a01b031633146105a85760405162461bcd60e51b815260206004820152601d60248201527f436f6f7264696e61746f723a206e6f742050726f6f664d616e6167657200000060448201526064016103a2565b5f8381526002602052604090206001600282015460ff1660038111156105d0576105d061068e565b146106185760405162461bcd60e51b8152602060048201526018602482015277436f6f7264696e61746f723a206e6f742070656e64696e6760401b60448201526064016103a2565b60028101805460ff19166003179055600481016106368385836108b4565b50837fe0a08f754cc74ec1f20eade28d053539996c8998ed475345dd4d3adbb4e0a1428484604051610669929190610970565b60405180910390a250505050565b5f60208284031215610687575f80fd5b5035919050565b634e487b7160e01b5f52602160045260245ffd5b6001600160a01b038616815260208082018690525f90600486106106d457634e487b7160e01b5f52602160045260245ffd5b85604084015284606084015260a0608084015283518060a08501525f5b8181101561070d5785810183015185820160c0015282016106f1565b505f60c0828601015260c0601f19601f830116850101925050509695505050505050565b5f8060408385031215610742575f80fd5b50508035926020909101359150565b5f805f60408486031215610763575f80fd5b83359250602084013567ffffffffffffffff80821115610781575f80fd5b818601915086601f830112610794575f80fd5b8135818111156107a2575f80fd5b8760208285010111156107b3575f80fd5b6020830194508093505050509250925092565b600181811c908216806107da57607f821691505b6020821081036107f857634e487b7160e01b5f52602260045260245ffd5b50919050565b5f6001820161081b57634e487b7160e01b5f52601160045260245ffd5b5060010190565b5f8060408385031215610833575f80fd5b82518015158114610842575f80fd5b6020939093015192949293505050565b634e487b7160e01b5f52604160045260245ffd5b601f8211156108af575f81815260208120601f850160051c8101602086101561088c5750805b601f850160051c820191505b818110156108ab57828155600101610898565b5050505b505050565b67ffffffffffffffff8311156108cc576108cc610852565b6108e0836108da83546107c6565b83610866565b5f601f841160018114610911575f85156108fa5750838201355b5f19600387901b1c1916600186901b178355610969565b5f83815260209020601f19861690835b828110156109415786850135825560209485019460019092019101610921565b508682101561095d575f1960f88860031b161c19848701351681555b505060018560011b0183555b5050505050565b60208152816020820152818360408301375f818301604090810191909152601f909201601f1916010191905056fea2646970667358221220f1081ee70a10d8fed5575b35be3d6a4803bed5de39daf8019e4aa7cdc032ea0a64736f6c63430008140033",
  "linkReferences": {},
  "deployedLinkReferences": {},
  "immutableReferences": {},
  "inputSourceName": "project/contracts/Coordinator.sol",
  "buildInfoId": "solc-0_8_20-21587cea80810f24a5c36e39d24524ff84c54fc4"
}