{
  "_format": "hh3-artifact-1",
  "contractName": "VerifierAdapter",
  "sourceName": "contracts/VerifierAdapter.sol",
  "abi": [
    {
      "inputs": [
        {
          "internalType": "address",
          "name": "_groth16Verifier",
          "type": "address"
        }
      ],
      "stateMutability": "nonpayable",
      "type": "constructor"
    },
    {
      "inputs": [],
      "name": "groth16Verifier",
      "outputs": [
        {
          "internalType": "contract IGroth16Verifier",
          "name": "",
          "type": "address"
        }
      ],
      "stateMutability": "view",
      "type": "function"
    },
    {
      "inputs": [
        {
          "internalType": "bytes",
          "name": "proof",
          "type": "bytes"
        },
        {
          "internalType": "bytes32",
          "name": "infoHash",
          "type": "bytes32"
        }
      ],
      "name": "verify",
      "outputs": [
        {
          "internalType": "bool",
          "name": "",
          "type": "bool"
        }
      ],
      "stateMutability": "view",
      "type": "function"
    }
  ],
  "bytecode": "0x60a060405234801561000f575f80fd5b506040516104d43803806104d483398101604081905261002e91610099565b6001600160a01b0381166100885760405162461bcd60e51b815260206004820152601d60248201527f5665726966696572416461707465723a207a65726f2061646472657373000000604482015260640160405180910390fd5b6001600160a01b03166080526100c6565b5f602082840312156100a9575f80fd5b81516001600160a01b03811681146100bf575f80fd5b9392505050565b6080516103f16100e35f395f8181603d015260ba01526103f15ff3fe608060405234801561000f575f80fd5b5060043610610034575f3560e01c806319c813be146100385780636b4063411461007c575b5f80fd5b61005f7f000000000000000000000000000000000000000000000000000000000000000081565b6040516001600160a01b0390911681526020015b60405180910390f35b61008f61008a366004610155565b61009f565b6040519015158152602001610073565b5f808080806100b087890189610248565b93509350935093507f00000000000000000000000000000000000000000000000000000000000000006001600160a01b031663f5c9d69e858585856040518563ffffffff1660e01b815260040161010a949392919061030b565b602060405180830381865afa158015610125573d5f803e3d5ffd5b505050506040513d601f19601f820116820180604052508101906101499190610395565b98975050505050505050565b5f805f60408486031215610167575f80fd5b833567ffffffffffffffff8082111561017e575f80fd5b818601915086601f830112610191575f80fd5b81358181111561019f575f80fd5b8760208285010111156101b0575f80fd5b6020928301989097509590910135949350505050565b6040805190810167ffffffffffffffff811182821017156101f557634e487b7160e01b5f52604160045260245ffd5b60405290565b5f82601f83011261020a575f80fd5b6102126101c6565b806040840185811115610223575f80fd5b845b8181101561023d578035845260209384019301610225565b509095945050505050565b5f805f80610140858703121561025c575f80fd5b61026686866101fb565b9350604086605f870112610278575f80fd5b6102806101c6565b8060c0880189811115610291575f80fd5b8389015b818110156102b6576102a78b826101fb565b84526020909301928401610295565b508196506102c48a826101fb565b9550505050506102d88661010087016101fb565b905092959194509250565b805f5b60028110156103055781518452602093840193909101906001016102e6565b50505050565b610140810161031a82876102e3565b6040808301865f805b6002808210610332575061036c565b835185845b83811015610355578251825260209283019290910190600101610337565b505050938501935060209290920191600101610323565b505050505061037e60c08301856102e3565b61038c6101008301846102e3565b95945050505050565b5f602082840312156103a5575f80fd5b815180151581146103b4575f80fd5b939250505056fea2646970667358221220d2e70c2300237e70f8221c8d16b70434e703174571f269163109945127395e2364736f6c63430008140033",
  "linkReferences": {},
  "deployedLinkReferences": {},
  "immutableReferences": {
    "30": [
      {
        "length": 32,
        "start": 61
      },
      {
        "length": 32,
        "start": 186
      }
    ]
  },
  "inputSourceName": "project/contracts/VerifierAdapter.sol",
  "buildInfoId": "solc-0_8_20-d7244a68a9ad66061f2d53a16d928de9db17bd1f"
}