{
  "_format": "hh3-artifact-1",
  "contractName": "ProofManager",
  "sourceName": "contracts/ProofManager.sol",
  "abi": [
    {
      "inputs": [
        {
          "internalType": "address",
          "name": "_admin",
          "type": "address"
        }
      ],
      "stateMutability": "nonpayable",
      "type": "constructor"
    },
    {
      "anonymous": false,
      "inputs": [
        {
          "indexed": false,
          "internalType": "address",
          "name": "coordinator",
          "type": "address"
        }
      ],
      "name": "CoordinatorSet",
      "type": "event"
    },
    {
      "anonymous": false,
      "inputs": [
        {
          "indexed": false,
          "internalType": "address",
          "name": "oracle",
          "type": "address"
        }
      ],
      "name": "OracleSet",
      "type": "event"
    },
    {
      "anonymous": false,
      "inputs": [
        {
          "indexed": true,
          "internalType": "bytes32",
          "name": "infoHash",
          "type": "bytes32"
        },
        {
          "indexed": false,
          "internalType": "bytes32",
          "name": "proofHash",
          "type": "bytes32"
        },
        {
          "indexed": false,
          "internalType": "bool",
          "name": "isAggregate",
          "type": "bool"
        }
      ],
      "name": "ProofStored",
      "type": "event"
    },
    {
      "anonymous": false,
      "inputs": [
        {
          "indexed": false,
          "internalType": "address",
          "name": "verifier",
          "type": "address"
        }
      ],
      "name": "VerifierSet",
      "type": "event"
    },
    {
      "inputs": [],
      "name": "admin",
      "outputs": [
        {
          "internalType": "address",
          "name": "",
          "type": "address"
        }
      ],
      "stateMutability": "view",
      "type": "function"
    },
    {
      "inputs": [],
      "name": "coordinator",
      "outputs": [
        {
          "internalType": "address",
          "name": "",
          "type": "address"
        }
      ],
      "stateMutability": "view",
      "type": "function"
    },
    {
      "inputs": [
        {
          "internalType": "bytes32",
          "name": "infoHash",
          "type": "bytes32"
        }
      ],
      "name": "getProofIfExists",
      "outputs": [
        {
          "internalType": "bool",
          "name": "exists",
          "type": "bool"
        },
        {
          "internalType": "bytes32",
          "name": "proofHash",
          "type": "bytes32"
        }
      ],
      "stateMutability": "view",
      "type": "function"
    },
    {
      "inputs": [
        {
          "internalType": "bytes32",
          "name": "infoHash",
          "type": "bytes32"
        }
      ],
      "name": "getProofRecord",
      "outputs": [
        {
          "internalType": "bool",
          "name": "exists",
          "type": "bool"
        },
        {
          "internalType": "bytes32",
          "name": "infoHashOut",
          "type": "bytes32"
        },
        {
          "internalType": "bytes32",
          "name": "proofHash",
          "type": "bytes32"
        },
        {
          "internalType": "bool",
          "name": "isAggregate",
          "type": "bool"
        },
        {
          "internalType": "uint64",
          "name": "timestamp",
          "type": "uint64"
        }
      ],
      "stateMutability": "view",
      "type": "function"
    },
    {
      "inputs": [],
      "name": "oracle",
      "outputs": [
        {
          "internalType": "address",
          "name": "",
          "type": "address"
        }
      ],
      "stateMutability": "view",
      "type": "function"
    },
    {
      "inputs": [
        {
          "internalType": "address",
          "name": "_coordinator",
          "type": "address"
        }
      ],
      "name": "setCoordinator",
      "outputs": [],
      "stateMutability": "nonpayable",
      "type": "function"
    },
    {
      "inputs": [
        {
          "internalType": "address",
          "name": "_oracle",
          "type": "address"
        }
      ],
      "name": "setOracle",
      "outputs": [],
      "stateMutability": "nonpayable",
      "type": "function"
    },
    {
      "inputs": [
        {
          "internalType": "address",
          "name": "_verifier",
          "type": "address"
        }
      ],
      "name": "setVerifier",
      "outputs": [],
      "stateMutability": "nonpayable",
      "type": "function"
    },
    {
      "inputs": [
        {
          "internalType": "uint256",
          "name": "requestId",
          "type": "uint256"
        },
        {
          "internalType": "bytes32",
          "name": "infoHash",
          "type": "bytes32"
        },
        {
          "internalType": "bytes",
          "name": "proof",
          "type": "bytes"
        },
        {
          "internalType": "bool",
          "name": "isAggregate",
          "type": "bool"
        }
      ],
      "name": "submitProofForRequest",
      "outputs": [],
      "stateMutability": "nonpayable",
      "type": "function"
    },
    {
      "inputs": [],
      "name": "verifier",
      "outputs": [
        {
          "internalType": "address",
          "name": "",
          "type": "address"
        }
      ],
      "stateMutability": "view",
      "type": "function"
    }
  ],
  "bytecode": "0x608060405234801561000f575f80fd5b506040516109e03803806109e083398101604081905261002e916100ac565b6001600160a01b0381166100885760405162461bcd60e51b815260206004820152601860248201527f50726f6f664d616e616765723a207a65726f2061646d696e0000000000000000604482015260640160405180910390fd5b5f80546001600160a01b0319166001600160a01b03929092169190911790556100d9565b5f602082840312156100bc575f80fd5b81516001600160a01b03811681146100d2575f80fd5b9392505050565b6108fa806100e65f395ff3fe608060405234801561000f575f80fd5b506004361061009b575f3560e01c80637adbf973116100635780637adbf973146101bb5780637dc0d1d0146101ce5780638ea98117146101e1578063bd5500a1146101f4578063f851a44014610207575f80fd5b80630a0090971461009f5780632b7ac3f3146100cf5780634840d123146100e257806353aa2c03146101645780635437988d146101a6575b5f80fd5b6001546100b2906001600160a01b031681565b6040516001600160a01b0390911681526020015b60405180910390f35b6003546100b2906001600160a01b031681565b61012e6100f0366004610745565b5f90815260046020526040902080546001820154600283015460039093015460ff9283169491939281169161010090910467ffffffffffffffff1690565b6040805195151586526020860194909452928401919091521515606083015267ffffffffffffffff16608082015260a0016100c6565b61018f610172366004610745565b5f908152600460205260409020805460029091015460ff90911691565b6040805192151583526020830191909152016100c6565b6101b96101b436600461075c565b610219565b005b6101b96101c936600461075c565b6102a0565b6002546100b2906001600160a01b031681565b6101b96101ef36600461075c565b61036d565b6101b9610202366004610799565b61043a565b5f546100b2906001600160a01b031681565b5f546001600160a01b0316331461024b5760405162461bcd60e51b81526004016102429061082c565b60405180910390fd5b600380546001600160a01b0319166001600160a01b0383169081179091556040519081527f480b37e3d134e44cb444c9703493c7db564c707cb8a18cecea165f340431da1f906020015b60405180910390a150565b5f546001600160a01b031633146102c95760405162461bcd60e51b81526004016102429061082c565b6001600160a01b03811661031f5760405162461bcd60e51b815260206004820152601960248201527f50726f6f664d616e616765723a207a65726f206f7261636c65000000000000006044820152606401610242565b600280546001600160a01b0319166001600160a01b0383169081179091556040519081527f3f32684a32a11dabdbb8c0177de80aa3ae36a004d75210335b49e544e48cd0aa90602001610295565b5f546001600160a01b031633146103965760405162461bcd60e51b81526004016102429061082c565b6001600160a01b0381166103ec5760405162461bcd60e51b815260206004820152601e60248201527f50726f6f664d616e616765723a207a65726f20636f6f7264696e61746f7200006044820152606401610242565b600180546001600160a01b0319166001600160a01b0383169081179091556040519081527fd1a6a14209a385a964d036e404cb5cfb71f4000cdb03c9366292430787261be690602001610295565b6002546001600160a01b031633146104945760405162461bcd60e51b815260206004820152601860248201527f50726f6f664d616e616765723a206e6f74206f7261636c6500000000000000006044820152606401610242565b6001546001600160a01b03166104f65760405162461bcd60e51b815260206004820152602160248201527f50726f6f664d616e616765723a20636f6f7264696e61746f72206e6f742073656044820152601d60fa1b6064820152608401610242565b6003546001600160a01b03161561061157600354604051636b40634160e01b81525f916001600160a01b031690636b4063419061053b90879087908a90600401610863565b602060405180830381865afa158015610556573d5f803e3d5ffd5b505050506040513d601f19601f8201168201806040525081019061057a919061089a565b90508061060f576001546040805160016273def760e11b03198152600481018990526024810191909152601360448201527215995c9a599a58d85d1a5bdb8819985a5b1959606a1b60648201526001600160a01b039091169063ff184212906084015f604051808303815f87803b1580156105f3575f80fd5b505af1158015610605573d5f803e3d5ffd5b505050505061073e565b505b5f848152600460205260408120805490919060ff1615610636575060028101546106db565b84846040516106469291906108b5565b604080519182900382208454600160ff199091168117865585018990556002850181905560038501805468ffffffffffffffffff191687151568ffffffffffffffff00198116919091176101004267ffffffffffffffff1602179091558184526020840152925087917ff61b0be8899e7f684389248729398797ef340c35e9aa1e2201892e178acf8fe6910160405180910390a25b600154604051634d71b4ad60e11b815260048101899052602481018390526001600160a01b0390911690639ae3695a906044015f604051808303815f87803b158015610725575f80fd5b505af1158015610737573d5f803e3d5ffd5b5050505050505b5050505050565b5f60208284031215610755575f80fd5b5035919050565b5f6020828403121561076c575f80fd5b81356001600160a01b0381168114610782575f80fd5b9392505050565b8015158114610796575f80fd5b50565b5f805f805f608086880312156107ad575f80fd5b8535945060208601359350604086013567ffffffffffffffff808211156107d2575f80fd5b818801915088601f8301126107e5575f80fd5b8135818111156107f3575f80fd5b896020828501011115610804575f80fd5b602083019550809450505050606086013561081e81610789565b809150509295509295909350565b60208082526017908201527f50726f6f664d616e616765723a206e6f742061646d696e000000000000000000604082015260600190565b60408152826040820152828460608301375f606084830101525f6060601f19601f8601168301019050826020830152949350505050565b5f602082840312156108aa575f80fd5b815161078281610789565b818382375f910190815291905056fea26469706673582212203562acf7b84fc8c3fd3eba6c8d5751b7bda1f3d842e7908db6e88a47416bae4064736f6c63430008140033",
  "linkReferences": {},
  "deployedLinkReferences": {},
  "immutableReferences": {},
  "inputSourceName": "project/contracts/ProofManager.sol",
  "buildInfoId": "solc-0_8_20-105e1c9d7dc8b0c8a94323d1116852812622eb7b"
}